:0410000065EF12F096
:08100800046ED8CF05F0E0CF23
:1010100006F00001E9CF0CF0EACF07F0E1CF08F0CD
:10102000E2CF09F0D9CF0AF0DACF0BF0F3CF12F00C
:10103000F4CF13F0FACF14F000C00EF001C00FF09F
:1010400002C010F003C011F0A0AA2AEF08F0A1BA64
:10105000D8EF0FF00EC000F00FC001F010C002F08A
:1010600011C003F00CC0E9FF07C0EAFF078E08C0FB
:10107000E1FF09C0E2FF0AC0D9FF0BC0DAFF12C0CE
:10108000F3FF13C0F4FF14C0FAFF045006C0E0FFE2
:1010900005C0D8FF1000F76AA60FF66E100EF722F3
:1010A0000900F5501200000302FFFFFFFFFFFFFFE2
:1010B000FFFFFFFFFFFFF76AC60FF66E100EF72265
:1010C0000900F550120000FF02FFFFFFFFFFFFFFC6
:1010D000FFFFFFFFFFFFF76AE60FF66E100EF72225
:1010E0000900F55012004000080040000000000018
:1010F00000000000000000000000000000000000F0
:1011000000000000000007AE03D0F2CF0DF0F29E09
:10111000F76A280FF66E110EF7220900F55007AE98
:1011200002D00DBEF28E1200400000004000000010
:1011300000000000000000000000000000000000AF
:101140000000000000000000F76A580FF66E110E54
:10115000F7220900F550120009024300020100C005
:1011600032090400000102020100052400100104FC
:10117000240202052406000105240100010705815F
:10118000030800FA09040100020A00000007050232
:10119000024000FA070582024000FA00F76AAC0F2D
:1011A000F66E110EF7220900F55012000200F76AE0
:1011B000BE0FF66E110EF7220900F5501200120054
:1011C00017001B002000FFFFFFFFFFFFFFFFF76A74
:1011D000DE0FF66E110EF7220900F5501200120113
:1011E000100102000040D8040A00000101020001C1
:1011F000F76A000FF66E120EF7220900F550120082
:10120000040309040803520052003200160352007E
:101210006500640050006900630020005500530021
:1012200042006D92699468A402D06894FCD7E4EF00
:101230000FF0400E0401016F040E036F180E026FD1
:10124000880E006F046B040E076F580E066F0001C6
:10125000120070A002D0EDDF7090689AEBEF0FF0F3
:101260006A6A6892F0EF0FF0C191C0BFC181C09F60
:10127000C051100803E2000E016E20D0C1A110D0B1
:10128000036AC051F2CFC2F0F29E05DFC2BFF28EF8
:10129000FF0802E1000E01D0010E016E0FD00ED04A
:1012A000036AC051F2CFC2F0F29E05DFC2BFF28ED8
:1012B000FF0802E1000E01D0010E016E1200C551BF
:1012C000C703F3CF01F0F4CF00F0C803F3500026BA
:1012D000C651C703F3500020026E1200036ABF51CB
:1012E000700FE96E0F0E0320EA6EEF6ABFC0C0F008
:1012F000BBDF015222E0C66BBFC0C5F0C86B080E51
:10130000C76FDDDF01C0E9FF040E0224EA6EEF6A59
:10131000C66BBFC0C5F0C86B080EC76FD0DF02C078
:10132000C1F001C0C0F0040EC027000EC123C0C030
:10133000E9FF040EC125EA6EEF6A1200010EBE6FCE
:10134000BE510F0805E3BEC0BFF0C8DFBE2BF8D703
:101350001200316A306A250E2F6E800E2E6E326AB0
:10136000336A080E346E846B7F93366A356A806BFD
:1013700081917F8112002B6A2A6AB46BB4510108F3
:101380000AE3036AB4512C0FE96E000E0320EA6EE3
:10139000EF6AB42BF3D7DDDF1E6A010E1F6E1D6AE4
:1013A0001200689612006A6A686A9F0E6B6E3D0EA4
:1013B000696E6E6AC3DFDFDF160E706E68A602D03C
:1013C000F0DFFCD76D9835DF030E256EF5EF0FF0DB
:1013D000698468986D82FAEF0FF0689CFFEF0FF058
:1013E000B9C026F0120026681200B76B2A502B10E5
:1013F0003CE0B7513F0839E3205005E0020A0EE017
:10140000010A17E020D029C003F02850F2CFB9F02C
:10141000F29E9ADEB9BFF28EB86F15D029C003F0E4
:101420002850F2CFB9F0F29EE3DEB9BFF28EB86F6A
:101430000AD029C003F02850F2CFB9F0F29EC7DEDF
:10144000B9BFF28EB86F282AD8B4292A2A50D8B446
:101450002B062A06B751B72B580FE96E040EEA6E19
:10146000D8B0EA2AB8C0EFFFC1D72A502B1004E148
:10147000B751400801E01D6AB7C0B9F0B1DF1200F2
:10148000296A286A206A04011B51010A000107E049
:10149000030A0BE0010A0DE0220A27E04CD02B6A78
:1014A000120E2A6E030E206E48D02B6A430E2A6E4F
:1014B00044D0020E206E036A04011A51210FE96E16
:1014C000000E0320EA6E296AEFCF28F029C003F04E
:1014D0002850F2CFB6F0F29E00018ADEB6BFF28E3F
:1014E000036A2A6E03C02BF028D0D89004011A3565
:1014F000036AF2CFB6F0F29E000159DE0900F5CF83
:1015000003F0B6BFF28E286E03C029F0283C02D04B
:1015100029520FE029C003F02850F2CFB6F0F29E16
:1015200013DEB6BFF28E036A2A6E03C02BF005D01D
:1015300002D059DF11D057DF0FD004011F5308E14B
:101540002B5203E12A501E5D03E22B6A1EC42AF0CF
:10155000010E1D6E000149DFF2EF0BF0B65304E1FE
:10156000040E256EEBDEE9D0050E256E040EB96F74
:10157000980EB86F010EB76FB7510F08D8A0DDD025
:10158000B7C0BFF0ABDEBA6B036AB751F2CFBEF0A3
:10159000F29E91DDBEBFF28EFF0865E0040EBA6FC9
:1015A000D890B735036AF2CFBEF0F29EACDD0900E9
:1015B000F5CF03F0BEBFF28EBB6F03C0BCF0C66BAD
:1015C000B7C0C5F0C86B080EC76F79DE01C0BEF0AA
:1015D000010E0124016E000E0220036E01C0E9FF1E
:1015E000040E0324EA6EBBC0EFFFC66BB7C0C5F0A4
:1015F000C86B080EC76F63DE01C0BEF0020E012487
:10160000016E000E0220036E01C0E9FF040E0324E8
:10161000EA6EB9C0ECFFED52B8C0EFFFD890B73515
:10162000036AF2CFBEF0F29E6EDD0900F5CF03F043
:10163000BEBFF28EB8270350B923880EBD6FBCA180
:1016400001D0BD81BCA301D0BD83C66BB7C0C5F0BE
:10165000C86B080EC76F33DE01C0E9FF040E022419
:10166000EA6EBDC0EFFF036AB751F2CFBEF0F29E43
:1016700012DDBEBFF28EFF0845E0BA83C66BB7C06D
:10168000C5F0C86B080EC76F1ADE02C0BFF001C0FC
:10169000BEF0040EBE27000EBF23020EBE25016E53
:1016A000000EBF21036E01C0E9FF040E0324EA6EA1
:1016B000B9C0ECFFED52B8C0EFFFD890B735036A60
:1016C000F2CFBEF0F29E07DD0900F5CF03F0BEBFFA
:1016D000F28EB8270350B923C66BB7C0C5F0C86BEC
:1016E000080EC76FECDD02C0BFF001C0BEF0040EF3
:1016F000BE27000EBF23BEC0E9FF040EBF25EA6E61
:10170000400EEF6EBA51060802E10E0EBA6F036A80
:10171000B751F2CFBEF0F29EBEDCBEBFF28E010822
:1017200001E0BA89036AB751700FE96E0F0E03200A
:10173000EA6EBAC0EFFFB72B1FD7ECEF0BF0040136
:101740001951000A00010DE0010A14E0020A1FE02D
:10175000060A29E0030A2EE00E0A2EE0010A32E012
:1017600040D01FC058F40401596B020E0001B96F3C
:1017700037DE38D004011A2D07D0010E1F160001E4
:10178000B96B2EDE03D0040100012DDE2BD0040145
:101790001A2D06D01F820001B96B22DE03D004018E
:1017A000000121DE1FD0020E1D6E1AC427F0B96B96
:1017B00017DE18D065D616D01EC058F4010EB96FCA
:1017C0000FDE10D004011A51010809E31AC41EF0FB
:1017D0001AC4B6F00001C2D6B96B02DE04010001E2
:1017E00001D001DE67EF0DF01EC0B6F00401195103
:1017F000000A000105E00A0A0BE0010A2BE03CD0D8
:101800000401586B596B020E0001B96FE9DD35D048
:10181000B6531EE0010EB65D036AF2CFB7F0F29E3A
:10182000BDDCB7BFF28E016E04011C5DD8A002D0F2
:1018300000010ED0036A1C512C0FE96E000E03202C
:10184000EA6EEFCF58F4010E0001B96FC9DD01D087
:10185000CADD13D0B6530EE0036A04011C512C0FED
:10186000E96E000E0320EA6E1AC4EFFF0001B96BA7
:10187000B7DD01D0B8DD01D0B6DD67EF0DF0B7916F
:10188000B6BFB781B69FB7A117D0C66BB6C0C5F0BB
:10189000C86B080EC76F13DD02C0B9F001C0B8F005
:1018A000040EB827000EB923B8C0E9FF040EB9250D
:1018B000EA6E880EEF6E0DD0C66BB6C0C5F0C86B71
:1018C000080EC76FFCDC01C0E9FF040E0224EA6EBB
:1018D000EF6ADFEF0CF0B791B6BFB781B69FB7A143
:1018E00017D0C66BB6C0C5F0C86B080EC76FE7DC73
:1018F00002C0B9F001C0B8F0040EB827000EB92339
:10190000B8C0E9FF040EB925EA6E840EEF6E0ED062
:10191000C66BB6C0C5F0C86B080EC76FD0DC01C07F
:10192000E9FF040E0224EA6E840EEF6EE5EF0CF080
:10193000B791B6BFB781B69FB7A117D0C66BB6C077
:10194000C5F0C86B080EC76FBADC02C0BAF001C0A0
:10195000B9F0040EB927000EBA23B9C0E9FF040E8E
:10196000BA25EA6EEFCFB8F00ED0C66BB6C0C5F0A0
:10197000C86B080EC76FA3DC01C0E9FF040E022488
:10198000EA6EEFCFB8F0B8AF02D0B8B502D0000E13
:1019900001D0010E016EEFEF0CF01CC4C0F064DC4E
:1019A000015228E004011951010A000105E0020A70
:1019B00009E0030A0DE01DD01CC4B6F060D7B96B76
:1019C0000FDD18D01CC4B6F086D7B96B09DD12D074
:1019D0000401586B596B1CC4B6F00001A9D7015221
:1019E00004E0010E0401586F0001020EB96FF8DC2B
:1019F00001D0F9DC67EF0DF0FE0E266E1200040137
:101A00001C2D01D002D01C5348E11951000A0001DD
:101A10000BE0010A0DE0210A1CE0010A1FE0030AA5
:101A20002EE0010A31E037D0010E856FE5DF34D0BA
:101A3000040EEA6E580EE96EE26A370EE16E080E89
:101A4000016EE6CFEEFF012EFCD71EC4B9F0C8DC54
:101A500023D0020E856F7F83CFDF1ED0040EEA6E87
:101A6000580EE96EE26A2E0EE16E070E016EE6CFA9
:101A7000EEFF012EFCD7070EB96FB2DC0DD01AC4F1
:101A800084F0B96BADDC08D01AC436F01BC435F055
:101A9000B96BA6DC01D0A7DC0401000167EF0DF0F3
:101AA0001D6A040118517F0B000A000107E0010ABA
:101AB00007E0030A07E0230A07E008D040D607D072
:101AC00093D605D06AD703D09AD701D08CDC8EEF9D
:101AD0000FF0C66BB6C0C5F0C86B080EC76F5FECE1
:101AE00009F001C0E9FF040E0224EA6EEFCFB8F05E
:101AF000B751020806E1B8AD02D0B76B02D0010EB3
:101B0000B76FB75103081AE1840EB86FC66BB6C041
:101B1000C5F0C86B080EC76F5FEC09F002C0BCF0DF
:101B200001C0BBF0040EBB27000EBC23BBC0E9FF05
:101B3000040EBC25EA6E840EEF6E07D0B72D03D0DD
:101B4000C80EB86F02D0880EB86FD890B635036A49
:101B5000F2CFBBF0F29E83EC08F00900F5CF03F062
:101B6000BBBFF28EB96F03C0BAF0C66BB6C0C5F08A
:101B7000C86B080EC76F5FEC09F001C0BBF0010E27
:101B80000124016E000E0220036E01C0E9FF040E65
:101B90000324EA6EB9C0EFFFBAA101D0B881BAA39D
:101BA00001D0B883C66BB6C0C5F0C86B080EC76F4E
:101BB0005FEC09F001C0E9FF040E0224EA6EB8C030
:101BC000EFFF1200036AC451700FE96E0F0E03207D
:101BD000EA6EEF5219E0C66BC4C0C5F0C86B080EC0
:101BE000C76F5FEC09F002C0C6F001C0C5F0040E7B
:101BF000C527000EC623C5C0E9FF040EC625EA6E40
:101C0000EFCFC7F0C7AF02D0000E01D0010E016EBA
:101C10001200BFC0C4F0D6DF0152D8B47DD0C66B6D
:101C2000BFC0C5F0C86B080EC76F5FEC09F002C0FB
:101C3000C5F001C0C4F0040EC427000EC523010E78
:101C4000C425016E000EC521036E01C0E9FF040E1C
:101C50000324EA6EC0C0EFFFC25102081EE1C66B4A
:101C6000BFC0C5F0C86B080EC76F5FEC09F002C0BB
:101C7000C5F001C0C4F0040EC427000EC523C4C0C3
:101C8000E9FF040EC525EA6EEFCFC3F0C3AD02D065
:101C9000C26B02D0010EC26F18D0C251040815E108
:101CA000C66BBFC0C5F0C86B080EC76F5FEC09F00C
:101CB00001C0E9FF040E0224EA6EEFCFC3F0C3AD0A
:101CC00003D0010EC26F01D0C26BC22D03D0C80E6B
:101CD000C36F02D0880EC36FC1A101D0C381C1A35D
:101CE00001D0C383C66BBFC0C5F0C86B080EC76FF9
:101CF0005FEC09F002C0C5F001C0C4F0040EC427B7
:101D0000000EC523C4C0E9FF040EC525EA6EC3C09A
:101D1000EFFF010E016E02D0000E016E1200855120
:101D2000010A03E0030A13E024D0EA6A370EE96EE1
:101D3000040EE26E180EE16E080E016EE6CFEEFFA5
:101D4000012EFCD7B96BF0EC09F0856B15D0EA6A6F
:101D50002E0EE96E040EE26E180EE16E070E016E95
:101D6000E6CFEEFF012EFCD7856BB96BF0EC09F0E6
:101D700003D0856B19EC09F0E8EF0EF0C66BB7C025
:101D8000C5F0C86B080EC76F5FEC09F002C0B9F070
:101D900001C0B8F0010E0124016E000E0220036E96
:101DA00001C0E9FF040E0324EA6E036AEFCF01F0DD
:101DB00003C002F0E1EF0EF08181836B020EB76F7A
:101DC000DDD701C082F0EDEF0EF0B65302E1A7D7E8
:101DD00004D0B651020801E1EFD71200B7C06EFF80
:101DE000B75303E0040E256E02D0020E256EFEEFFF
:101DF0000EF01E6A1D6A27C0B7F0F0D76DEF0FF026
:101E0000B7C0C4F0DFDE015243E0C66BB7C0C5F017
:101E1000C86B080EC76F5FEC09F002C0C0F001C0CC
:101E2000BFF0040EBF27000EC023020EBF25016EB7
:101E3000000EC021036E01C0E9FF040E0324EA6E08
:101E4000ECCFBEF0ED52EFCFBDF0BEC0EAFFBDC09B
:101E5000E9FFB9C0E2FFB8C0E1FFBBC002F0BAC001
:101E600001F0015202E0022A02D0025206E0E6CF5F
:101E7000EEFF012EFCD7022EFAD7B7C0BFF0BBC0D1
:101E8000C1F0BAC0C0F0BCC0C2F0C3DE015002D085
:101E9000000E016E120080530DE07F91020EB76FAD
:101EA000B96B3F0EB86FBB6B80C0BAF0020EBC6F4F
:101EB000A7DF806B1200805302E0EDDF01D07F814D
:101EC00072EF0FF0B6530AE11D2C03D0F5EC09F0C8
:101ED00004D01D500208D8B48CD704D0B6510208E3
:101EE00001E1E9D712002430B46FB433B4331F0ECC
:101EF000B417245241E1040100513C0B0001B56FBD
:101F0000430E040100170001B55134081EE104011D
:101F10000451800B01E0046B0001C2D56D98263C92
:101F200005D0B66B030EB76FD4DD0ED0B66B020EC4
:101F3000B76FCFDD2650FE0807E0BF6BC16B26C030
:101F4000C0F0040EC26F65DE16D0B551040813E16F
:101F5000B66B3BDFB66B020EB76FBBDD2650FE08DB
:101F60000AE0263C01D007D0BF6BC16B26C0C0F091
:101F7000010EC26F4EDE1AD0245004080EE126680E
:101F8000B66BA0DF263C01D007D0BF6BC16B26C06B
:101F9000C0F0020EC26F3DDE09D024B404D0B4C03C
:101FA000B6F013DF03D0B4C0B6F08CDF09EF10F049
:101FB000A19A2552D8B433D06852D8B430D068A48E
:101FC00003D069B411EF09F06DB229D068AA03D02B
:101FD00069BA29EF09F068A203D069B230EF09F0BD
:101FE00068A003D069B0D3EF09F068A803D069B83E
:101FF000E8EF09F068AC03D069BCEDEF09F0B36B12
:1020000068A608D069A606D06CCF24F0D1EC09F000
:102010006AD701D004D0B351B32B0308F1E22AEF01
:1020200008F06D6A696A080E6F6E94503009946EFC
:10203000256A166AF2BE168EF29EBBEC09F016BE39
:10204000F28E24EF10F0EDD74AEF10F0166AF2BED0
:10205000168EF29EBBEC09F016BEF28E6D6A140E5F
:102060006F6E696A6D86010E256E3AEF10F06DB6DF
:1020700001D0ECD7252C0BD06DBA09D0686A696AFB
:10208000A08AC00EF212110E696E020E256E4BEF81
:1020900010F0D9D7ECD725500208FCE186EF12F0FA
:1020A000EA6A920EE96EEF500EE00F0E016E006AC2
:1020B000002EFED7012EFBD78F0E006E002EFED70E
:1020C0000000EF2EF2D789EF12F081A1FED78351E5
:1020D000832B036A880FE96E050E0320EA6EEFCFAB
:1020E0009DF08251835D0BE38191166AF2BE168EDC
:1020F000F29E020EB66FB76FECDC16BEF28E9DC07C
:1021000001F0B8EF10F09F91F2BE9F81F29E8051D6
:102110003F0802E23F0E806F8051802B036A3F0F21
:10212000E96E000E0320EA6E9EC0EFFFF29E9FB1A3
:10213000F28E7FA107D0166AF2BE168EF29EABDE3B
:1021400016BEF28EB4EF10F080513F080AE27FA174
:1021500007D0166AF2BE168EF29E9DDE16BEF28E75
:10216000F3D79DC09EF0CFD712009A079B6BADD7D7
:1021700001C09CF09C5108080DE19B530AE09B07AD
:102180009CC09DF0E1DF200E9D6FDEDF9CC09DF0C6
:10219000DBDF16D09C511F0813E29C517E0810E330
:1021A0009A519B5D0DE29B519B2B036A9825E96E2A
:1021B00099510320EA6E9CC0EFFF9CC09DF0C4DFE4
:1021C0009C510D08D4E1036A9B519825E96E995101
:1021D0000320EA6EEF6AE7EF11F0006A016A9F518F
:1021E000D890A0B1002600320132A0B30026003200
:1021F0000132A0B5002600320132A0B7002600321D
:102200000132A0B9002600320132A0BB0026003204
:102210000132A0BD002600320132A0BF00260032EC
:1022200001327FEF11F09D6B9B6B0A0E9C6F9A6BD6
:102230009851991103E1000E016EC1D09D519D2B63
:10224000036A9825E96E99510320EA6EEFCF9EF05C
:102250009E512D080DE1010E9B6F9D519D2B036A30
:102260009825E96E99510320EA6EEFCF9EF00DD0CC
:102270009E512B080AE19D519D2B036A9825E96E1A
:1022800099510320EA6EEFCF9EF09E512F08D8B0EF
:102290008ED09E513908D8A08AD09E51300821E1B5
:1022A000036A9D519825E96E99510320EA6EEF501B
:1022B00078080AE0036A9D519825E96E9951032038
:1022C000EA6EEF5058080DE1100E9C6F9D2B9D514A
:1022D0009D2B036A9825E96E99510320EA6EEFCF92
:1022E0009EF09C510A081BE19E512F0817E29E5157
:1022F000390814E30A0E9F6F9AC0A0F06ED7300E13
:102300009E5D01249A6F9D519D2B036A9825E96E6D
:1023100099510320EA6EEFCF9EF0E6D748D09C514A
:10232000100845E19E51600806E29E517A0803E3D9
:102330009E51DF0B01D09E519E6F9E512F0803E2EC
:102340009E51390806E29E51400831E29E514608EE
:102350002EE39E512F080CE29E51390809E39A3969
:102360009F6FF00E9F17300E9E5D9F259A6F09D0CC
:102370009A399F6FF00E9F17410E9E5D0A0F9F25A1
:102380009A6F9D519D2B036A9825E96E9951032000
:10239000EA6EEFCF9EF09E51600806E29E517A08E9
:1023A00003E39E51DF0B01D09E519E6FC6D79B2D3C
:1023B00004D09C510A0801E19A6D9AC001F0EBEF3C
:1023C00011F0996B920E986F050E9A6FCED6996B9D
:1023D000920E986F28D701C097F097C001F0F4EFE4
:1023E00011F081A10BD0EDD701C091F0926B956BEC
:1023F000D8909531866F91C08BF07F858CEF12F06D
:10240000080E016E110E006E002EFED78A9093907A
:10241000110E006E002EFED796378A92D8B09382A6
:10242000D8A09392938081A0FED7012EEBD7110EF6
:10243000006E002EFED78A90939000009382110EBA
:10244000006E002EFED7110E006E002EFED7938078
:1024500081A0FED7016A110E006E002EFED781B258
:1024600001808A9093908A92939212009382110E27
:10247000006E002EFED79380110E006E002EFED748
:102480008A929392110E006E002EFED78A9093903E
:1024900093C096F0B5DF94C096F0B2DF956B95C00F
:1024A00096F0AEDF93920000938081A0FED7110ECC
:1024B000006E002EFED700D000009382110E006E39
:1024C000002EFED77F959CEF12F0F86AD09E078E03
:1024D000806B856B916B7F95C150C00B0F09C16EEE
:1024E000070EB46E176A186A216A040E226E0C0E6B
:1024F000236E100E8C6F110E8D6F120E8E6F130ED9
:102500008F6F140E906F936A8A6AC3D50A0E926F0A
:10251000C7D57FA3FED765D77FA50ED0036A8651A6
:102520008C0FE96E000E0320EA6EEFCF92F092C09E
:0C25300093F08BC094F09AD7ECD7030016
:020000040030CA
:0E00000024CE3E1E008781000FC00FE00F408F
:00000001FF
;PIC18F2550
;CRC=CAEA  CREATED="06-Mär-14 10:07"
